{
  "contractName": "Twitter",
  "abi": [
    {
      "inputs": [],
      "stateMutability": "nonpayable",
      "type": "constructor"
    },
    {
      "inputs": [],
      "name": "Owner",
      "outputs": [
        {
          "internalType": "address payable",
          "name": "",
          "type": "address"
        }
      ],
      "stateMutability": "view",
      "type": "function",
      "constant": true
    },
    {
      "inputs": [],
      "name": "tid",
      "outputs": [
        {
          "internalType": "uint256",
          "name": "",
          "type": "uint256"
        }
      ],
      "stateMutability": "view",
      "type": "function",
      "constant": true
    },
    {
      "inputs": [
        {
          "internalType": "uint256",
          "name": "",
          "type": "uint256"
        }
      ],
      "name": "tweets",
      "outputs": [
        {
          "internalType": "address",
          "name": "ethadd",
          "type": "address"
        },
        {
          "internalType": "string",
          "name": "username",
          "type": "string"
        },
        {
          "internalType": "string",
          "name": "tweet",
          "type": "string"
        },
        {
          "internalType": "string",
          "name": "ipfsHash",
          "type": "string"
        },
        {
          "internalType": "uint256",
          "name": "upVotes",
          "type": "uint256"
        },
        {
          "internalType": "uint256",
          "name": "downVotes",
          "type": "uint256"
        },
        {
          "internalType": "uint256",
          "name": "id",
          "type": "uint256"
        }
      ],
      "stateMutability": "view",
      "type": "function",
      "constant": true
    },
    {
      "inputs": [
        {
          "internalType": "uint256",
          "name": "",
          "type": "uint256"
        }
      ],
      "name": "users",
      "outputs": [
        {
          "internalType": "uint256",
          "name": "id",
          "type": "uint256"
        },
        {
          "internalType": "uint256",
          "name": "correctDownvotes",
          "type": "uint256"
        },
        {
          "internalType": "uint256",
          "name": "wrongDownvotes",
          "type": "uint256"
        },
        {
          "internalType": "string",
          "name": "name",
          "type": "string"
        },
        {
          "internalType": "address",
          "name": "ethad",
          "type": "address"
        },
        {
          "internalType": "string",
          "name": "username",
          "type": "string"
        },
        {
          "internalType": "string",
          "name": "email",
          "type": "string"
        },
        {
          "internalType": "string",
          "name": "password",
          "type": "string"
        }
      ],
      "stateMutability": "view",
      "type": "function",
      "constant": true
    },
    {
      "inputs": [
        {
          "internalType": "uint256",
          "name": "_id",
          "type": "uint256"
        },
        {
          "internalType": "string",
          "name": "_name",
          "type": "string"
        },
        {
          "internalType": "address",
          "name": "_ethad",
          "type": "address"
        },
        {
          "internalType": "string",
          "name": "_username",
          "type": "string"
        },
        {
          "internalType": "string",
          "name": "_email",
          "type": "string"
        },
        {
          "internalType": "string",
          "name": "_password",
          "type": "string"
        }
      ],
      "name": "addUser",
      "outputs": [],
      "stateMutability": "nonpayable",
      "type": "function"
    },
    {
      "inputs": [
        {
          "internalType": "address",
          "name": "_ethad",
          "type": "address"
        },
        {
          "internalType": "string",
          "name": "_password",
          "type": "string"
        }
      ],
      "name": "login",
      "outputs": [
        {
          "internalType": "bool",
          "name": "",
          "type": "bool"
        }
      ],
      "stateMutability": "view",
      "type": "function",
      "constant": true
    },
    {
      "inputs": [
        {
          "internalType": "address",
          "name": "_ethad",
          "type": "address"
        },
        {
          "internalType": "string",
          "name": "_username",
          "type": "string"
        },
        {
          "internalType": "string",
          "name": "_tweet",
          "type": "string"
        },
        {
          "internalType": "string",
          "name": "_ipfsHash",
          "type": "string"
        }
      ],
      "name": "addTweet",
      "outputs": [],
      "stateMutability": "nonpayable",
      "type": "function"
    },
    {
      "inputs": [],
      "name": "viewTweets",
      "outputs": [
        {
          "components": [
            {
              "internalType": "address",
              "name": "ethadd",
              "type": "address"
            },
            {
              "internalType": "string",
              "name": "username",
              "type": "string"
            },
            {
              "internalType": "string",
              "name": "tweet",
              "type": "string"
            },
            {
              "internalType": "string",
              "name": "ipfsHash",
              "type": "string"
            },
            {
              "internalType": "uint256",
              "name": "upVotes",
              "type": "uint256"
            },
            {
              "internalType": "uint256",
              "name": "downVotes",
              "type": "uint256"
            },
            {
              "internalType": "uint256",
              "name": "id",
              "type": "uint256"
            },
            {
              "internalType": "address[]",
              "name": "downVotedUsers",
              "type": "address[]"
            }
          ],
          "internalType": "struct Twitter.Tweet[]",
          "name": "",
          "type": "tuple[]"
        }
      ],
      "stateMutability": "view",
      "type": "function",
      "constant": true
    },
    {
      "inputs": [
        {
          "internalType": "address",
          "name": "_from",
          "type": "address"
        },
        {
          "internalType": "address payable",
          "name": "_to",
          "type": "address"
        },
        {
          "internalType": "uint256",
          "name": "_tid",
          "type": "uint256"
        }
      ],
      "name": "downVote",
      "outputs": [],
      "stateMutability": "nonpayable",
      "type": "function"
    },
    {
      "inputs": [
        {
          "internalType": "uint256",
          "name": "_tid",
          "type": "uint256"
        }
      ],
      "name": "downVotesUsers",
      "outputs": [
        {
          "internalType": "address[]",
          "name": "",
          "type": "address[]"
        }
      ],
      "stateMutability": "view",
      "type": "function",
      "constant": true
    },
    {
      "inputs": [
        {
          "internalType": "uint256",
          "name": "_id",
          "type": "uint256"
        }
      ],
      "name": "particularTweet",
      "outputs": [
        {
          "components": [
            {
              "internalType": "address",
              "name": "ethadd",
              "type": "address"
            },
            {
              "internalType": "string",
              "name": "username",
              "type": "string"
            },
            {
              "internalType": "string",
              "name": "tweet",
              "type": "string"
            },
            {
              "internalType": "string",
              "name": "ipfsHash",
              "type": "string"
            },
            {
              "internalType": "uint256",
              "name": "upVotes",
              "type": "uint256"
            },
            {
              "internalType": "uint256",
              "name": "downVotes",
              "type": "uint256"
            },
            {
              "internalType": "uint256",
              "name": "id",
              "type": "uint256"
            },
            {
              "internalType": "address[]",
              "name": "downVotedUsers",
              "type": "address[]"
            }
          ],
          "internalType": "struct Twitter.Tweet",
          "name": "",
          "type": "tuple"
        }
      ],
      "stateMutability": "view",
      "type": "function",
      "constant": true
    },
    {
      "inputs": [
        {
          "internalType": "uint256",
          "name": "_id",
          "type": "uint256"
        }
      ],
      "name": "getDownvotes",
      "outputs": [
        {
          "internalType": "uint256",
          "name": "",
          "type": "uint256"
        }
      ],
      "stateMutability": "view",
      "type": "function",
      "constant": true
    },
    {
      "inputs": [],
      "name": "viewAllAccounts",
      "outputs": [
        {
          "internalType": "uint256",
          "name": "",
          "type": "uint256"
        }
      ],
      "stateMutability": "view",
      "type": "function",
      "constant": true
    },
    {
      "inputs": [
        {
          "internalType": "uint256",
          "name": "_id",
          "type": "uint256"
        }
      ],
      "name": "checkFake",
      "outputs": [
        {
          "internalType": "bool",
          "name": "",
          "type": "bool"
        }
      ],
      "stateMutability": "view",
      "type": "function",
      "constant": true
    }
  ],
  "bytecode": "0x60806040526000805534801561001457600080fd5b5033600160006101000a81548173ffffffffffffffffffffffffffffffffffffffff021916908373ffffffffffffffffffffffffffffffffffffffff1602179055506125f5806100656000396000f3fe608060405234801561001057600080fd5b50600436106100ea5760003560e01c8063617e60181161008c578063b4a99a4e11610066578063b4a99a4e14610276578063bed54e6b14610294578063e441b7a7146102b2578063e8d857b0146102e2576100ea565b8063617e60181461020a578063843712311461023a578063a54b37b414610258576100ea565b80633070a6ad116100c85780633070a6ad1461016b578063308fac411461019b578063365b98b2146101b757806345f4cf29146101ee576100ea565b806302d32f90146100ef5780631fb966b81461010b5780632f19d50b1461013b575b600080fd5b61010960048036038101906101049190611672565b610318565b005b610125600480360381019061012091906116c5565b6103de565b6040516101329190611914565b60405180910390f35b61015560048036038101906101509190611a6b565b61072a565b6040516101629190611ae2565b60405180910390f35b610185600480360381019061018091906116c5565b61085c565b6040516101929190611b0c565b60405180910390f35b6101b560048036038101906101b09190611b27565b6108e5565b005b6101d160048036038101906101cc91906116c5565b610a48565b6040516101e5989796959493929190611c3b565b60405180910390f35b61020860048036038101906102039190611cd5565b610ce0565b005b610224600480360381019061021f91906116c5565b610e24565b6040516102319190611ae2565b60405180910390f35b610242610e7c565b60405161024f9190611b0c565b60405180910390f35b610260610e82565b60405161026d9190611b0c565b60405180910390f35b61027e610e8f565b60405161028b9190611de1565b60405180910390f35b61029c610eb5565b6040516102a99190611f83565b60405180910390f35b6102cc60048036038101906102c791906116c5565b6111cd565b6040516102d99190612014565b60405180910390f35b6102fc60048036038101906102f791906116c5565b611280565b60405161030f9796959493929190612036565b60405180910390f35b6002818154811061032c5761032b6120ba565b5b9060005260206000209060080201600501600081548092919061034e90612118565b919050555060028181548110610367576103666120ba565b5b9060005260206000209060080201600701839080600181540180825580915050600190039060005260206000200160009091909190916101000a81548173ffffffffffffffffffffffffffffffffffffffff021916908373ffffffffffffffffffffffffffffffffffffffff160217905550505050565b6103e661148a565b60005b60028054905081101561072357826002828154811061040b5761040a6120ba565b5b906000526020600020906008020160060154036107105760028181548110610436576104356120ba565b5b9060005260206000209060080201604051806101000160405290816000820160009054906101000a900473ffffffffffffffffffffffffffffffffffffffff1673ffffffffffffffffffffffffffffffffffffffff1673ffffffffffffffffffffffffffffffffffffffff1681526020016001820180546104b69061218f565b80601f01602080910402602001604051908101604052809291908181526020018280546104e29061218f565b801561052f5780601f106105045761010080835404028352916020019161052f565b820191906000526020600020905b81548152906001019060200180831161051257829003601f168201915b505050505081526020016002820180546105489061218f565b80601f01602080910402602001604051908101604052809291908181526020018280546105749061218f565b80156105c15780601f10610596576101008083540402835291602001916105c1565b820191906000526020600020905b8154815290600101906020018083116105a457829003601f168201915b505050505081526020016003820180546105da9061218f565b80601f01602080910402602001604051908101604052809291908181526020018280546106069061218f565b80156106535780601f1061062857610100808354040283529160200191610653565b820191906000526020600020905b81548152906001019060200180831161063657829003601f168201915b50505050508152602001600482015481526020016005820154815260200160068201548152602001600782018054806020026020016040519081016040528092919081815260200182805480156106ff57602002820191906000526020600020905b8160009054906101000a900473ffffffffffffffffffffffffffffffffffffffff1673ffffffffffffffffffffffffffffffffffffffff16815260200190600101908083116106b5575b505050505081525050915050610725565b808061071b90612118565b9150506103e9565b505b919050565b600080600090505b600380549050811015610850578373ffffffffffffffffffffffffffffffffffffffff166003828154811061076a576107696120ba565b5b906000526020600020906008020160040160009054906101000a900473ffffffffffffffffffffffffffffffffffffffff1673ffffffffffffffffffffffffffffffffffffffff1614801561082e5750600381815481106107ce576107cd6120ba565b5b90600052602060002090600802016007016040516020016107ef9190612263565b604051602081830303815290604052805190602001208360405160200161081691906122ab565b60405160208183030381529060405280519060200120145b1561083d576001915050610856565b808061084890612118565b915050610732565b50600090505b92915050565b600080600090505b6002805490508110156108de578260028281548110610886576108856120ba565b5b906000526020600020906008020160060154036108cb57600281815481106108b1576108b06120ba565b5b9060005260206000209060080201600501549150506108e0565b80806108d690612118565b915050610864565b505b919050565b606060026040518061010001604052808773ffffffffffffffffffffffffffffffffffffffff1681526020018681526020018581526020018481526020016000815260200160008152602001600054815260200183815250908060018154018082558091505060019003906000526020600020906008020160009091909190915060008201518160000160006101000a81548173ffffffffffffffffffffffffffffffffffffffff021916908373ffffffffffffffffffffffffffffffffffffffff16021790555060208201518160010190816109c29190612459565b5060408201518160020190816109d89190612459565b5060608201518160030190816109ee9190612459565b506080820151816004015560a0820151816005015560c0820151816006015560e0820151816007019080519060200190610a299291906114e5565b5050506001600054610a3b919061252b565b6000819055505050505050565b60038181548110610a5857600080fd5b9060005260206000209060080201600091509050806000015490806001015490806002015490806003018054610a8d9061218f565b80601f0160208091040260200160405190810160405280929190818152602001828054610ab99061218f565b8015610b065780601f10610adb57610100808354040283529160200191610b06565b820191906000526020600020905b815481529060010190602001808311610ae957829003601f168201915b5050505050908060040160009054906101000a900473ffffffffffffffffffffffffffffffffffffffff1690806005018054610b419061218f565b80601f0160208091040260200160405190810160405280929190818152602001828054610b6d9061218f565b8015610bba5780601f10610b8f57610100808354040283529160200191610bba565b820191906000526020600020905b815481529060010190602001808311610b9d57829003601f168201915b505050505090806006018054610bcf9061218f565b80601f0160208091040260200160405190810160405280929190818152602001828054610bfb9061218f565b8015610c485780601f10610c1d57610100808354040283529160200191610c48565b820191906000526020600020905b815481529060010190602001808311610c2b57829003601f168201915b505050505090806007018054610c5d9061218f565b80601f0160208091040260200160405190810160405280929190818152602001828054610c899061218f565b8015610cd65780601f10610cab57610100808354040283529160200191610cd6565b820191906000526020600020905b815481529060010190602001808311610cb957829003601f168201915b5050505050905088565b600360405180610100016040528088815260200160008152602001600081526020018781526020018673ffffffffffffffffffffffffffffffffffffffff1681526020018581526020018481526020018381525090806001815401808255809150506001900390600052602060002090600802016000909190919091506000820151816000015560208201518160010155604082015181600201556060820151816003019081610d909190612459565b5060808201518160040160006101000a81548173ffffffffffffffffffffffffffffffffffffffff021916908373ffffffffffffffffffffffffffffffffffffffff16021790555060a0820151816005019081610ded9190612459565b5060c0820151816006019081610e039190612459565b5060e0820151816007019081610e199190612459565b505050505050505050565b6000806003805490509050600381610e3c919061258e565b60028481548110610e5057610e4f6120ba565b5b90600052602060002090600802016005015410610e71576001915050610e77565b60009150505b919050565b60005481565b6000600380549050905090565b600160009054906101000a900473ffffffffffffffffffffffffffffffffffffffff1681565b60606002805480602002602001604051908101604052809291908181526020016000905b828210156111c45783829060005260206000209060080201604051806101000160405290816000820160009054906101000a900473ffffffffffffffffffffffffffffffffffffffff1673ffffffffffffffffffffffffffffffffffffffff1673ffffffffffffffffffffffffffffffffffffffff168152602001600182018054610f639061218f565b80601f0160208091040260200160405190810160405280929190818152602001828054610f8f9061218f565b8015610fdc5780601f10610fb157610100808354040283529160200191610fdc565b820191906000526020600020905b815481529060010190602001808311610fbf57829003601f168201915b50505050508152602001600282018054610ff59061218f565b80601f01602080910402602001604051908101604052809291908181526020018280546110219061218f565b801561106e5780601f106110435761010080835404028352916020019161106e565b820191906000526020600020905b81548152906001019060200180831161105157829003601f168201915b505050505081526020016003820180546110879061218f565b80601f01602080910402602001604051908101604052809291908181526020018280546110b39061218f565b80156111005780601f106110d557610100808354040283529160200191611100565b820191906000526020600020905b8154815290600101906020018083116110e357829003601f168201915b50505050508152602001600482015481526020016005820154815260200160068201548152602001600782018054806020026020016040519081016040528092919081815260200182805480156111ac57602002820191906000526020600020905b8160009054906101000a900473ffffffffffffffffffffffffffffffffffffffff1673ffffffffffffffffffffffffffffffffffffffff1681526020019060010190808311611162575b50505050508152505081526020019060010190610ed9565b50505050905090565b6060600282815481106111e3576111e26120ba565b5b906000526020600020906008020160070180548060200260200160405190810160405280929190818152602001828054801561127457602002820191906000526020600020905b8160009054906101000a900473ffffffffffffffffffffffffffffffffffffffff1673ffffffffffffffffffffffffffffffffffffffff168152602001906001019080831161122a575b50505050509050919050565b6002818154811061129057600080fd5b90600052602060002090600802016000915090508060000160009054906101000a900473ffffffffffffffffffffffffffffffffffffffff16908060010180546112d99061218f565b80601f01602080910402602001604051908101604052809291908181526020018280546113059061218f565b80156113525780601f1061132757610100808354040283529160200191611352565b820191906000526020600020905b81548152906001019060200180831161133557829003601f168201915b5050505050908060020180546113679061218f565b80601f01602080910402602001604051908101604052809291908181526020018280546113939061218f565b80156113e05780601f106113b5576101008083540402835291602001916113e0565b820191906000526020600020905b8154815290600101906020018083116113c357829003601f168201915b5050505050908060030180546113f59061218f565b80601f01602080910402602001604051908101604052809291908181526020018280546114219061218f565b801561146e5780601f106114435761010080835404028352916020019161146e565b820191906000526020600020905b81548152906001019060200180831161145157829003601f168201915b5050505050908060040154908060050154908060060154905087565b604051806101000160405280600073ffffffffffffffffffffffffffffffffffffffff168152602001606081526020016060815260200160608152602001600081526020016000815260200160008152602001606081525090565b82805482825590600052602060002090810192821561155e579160200282015b8281111561155d5782518260006101000a81548173ffffffffffffffffffffffffffffffffffffffff021916908373ffffffffffffffffffffffffffffffffffffffff16021790555091602001919060010190611505565b5b50905061156b919061156f565b5090565b5b80821115611588576000816000905550600101611570565b5090565b6000604051905090565b600080fd5b600080fd5b600073ffffffffffffffffffffffffffffffffffffffff82169050919050565b60006115cb826115a0565b9050919050565b6115db816115c0565b81146115e657600080fd5b50565b6000813590506115f8816115d2565b92915050565b6000611609826115a0565b9050919050565b611619816115fe565b811461162457600080fd5b50565b60008135905061163681611610565b92915050565b6000819050919050565b61164f8161163c565b811461165a57600080fd5b50565b60008135905061166c81611646565b92915050565b60008060006060848603121561168b5761168a611596565b5b6000611699868287016115e9565b93505060206116aa86828701611627565b92505060406116bb8682870161165d565b9150509250925092565b6000602082840312156116db576116da611596565b5b60006116e98482850161165d565b91505092915050565b6116fb816115c0565b82525050565b600081519050919050565b600082825260208201905092915050565b60005b8381101561173b578082015181840152602081019050611720565b60008484015250505050565b6000601f19601f8301169050919050565b600061176382611701565b61176d818561170c565b935061177d81856020860161171d565b61178681611747565b840191505092915050565b61179a8161163c565b82525050565b600081519050919050565b600082825260208201905092915050565b6000819050602082019050919050565b60006117d883836116f2565b60208301905092915050565b6000602082019050919050565b60006117fc826117a0565b61180681856117ab565b9350611811836117bc565b8060005b8381101561184257815161182988826117cc565b9750611834836117e4565b925050600181019050611815565b5085935050505092915050565b60006101008301600083015161186860008601826116f2565b50602083015184820360208601526118808282611758565b9150506040830151848203604086015261189a8282611758565b915050606083015184820360608601526118b48282611758565b91505060808301516118c96080860182611791565b5060a08301516118dc60a0860182611791565b5060c08301516118ef60c0860182611791565b5060e083015184820360e086015261190782826117f1565b9150508091505092915050565b6000602082019050818103600083015261192e818461184f565b905092915050565b600080fd5b600080fd5b7f4e487b7100000000000000000000000000000000000000000000000000000000600052604160045260246000fd5b61197882611747565b810181811067ffffffffffffffff8211171561199757611996611940565b5b80604052505050565b60006119aa61158c565b90506119b6828261196f565b919050565b600067ffffffffffffffff8211156119d6576119d5611940565b5b6119df82611747565b9050602081019050919050565b82818337600083830152505050565b6000611a0e611a09846119bb565b6119a0565b905082815260208101848484011115611a2a57611a2961193b565b5b611a358482856119ec565b509392505050565b600082601f830112611a5257611a51611936565b5b8135611a628482602086016119fb565b91505092915050565b60008060408385031215611a8257611a81611596565b5b6000611a90858286016115e9565b925050602083013567ffffffffffffffff811115611ab157611ab061159b565b5b611abd85828601611a3d565b9150509250929050565b60008115159050919050565b611adc81611ac7565b82525050565b6000602082019050611af76000830184611ad3565b92915050565b611b068161163c565b82525050565b6000602082019050611b216000830184611afd565b92915050565b60008060008060808587031215611b4157611b40611596565b5b6000611b4f878288016115e9565b945050602085013567ffffffffffffffff811115611b7057611b6f61159b565b5b611b7c87828801611a3d565b935050604085013567ffffffffffffffff811115611b9d57611b9c61159b565b5b611ba987828801611a3d565b925050606085013567ffffffffffffffff811115611bca57611bc961159b565b5b611bd687828801611a3d565b91505092959194509250565b600082825260208201905092915050565b6000611bfe82611701565b611c088185611be2565b9350611c1881856020860161171d565b611c2181611747565b840191505092915050565b611c35816115c0565b82525050565b600061010082019050611c51600083018b611afd565b611c5e602083018a611afd565b611c6b6040830189611afd565b8181036060830152611c7d8188611bf3565b9050611c8c6080830187611c2c565b81810360a0830152611c9e8186611bf3565b905081810360c0830152611cb28185611bf3565b905081810360e0830152611cc68184611bf3565b90509998505050505050505050565b60008060008060008060c08789031215611cf257611cf1611596565b5b6000611d0089828a0161165d565b965050602087013567ffffffffffffffff811115611d2157611d2061159b565b5b611d2d89828a01611a3d565b9550506040611d3e89828a016115e9565b945050606087013567ffffffffffffffff811115611d5f57611d5e61159b565b5b611d6b89828a01611a3d565b935050608087013567ffffffffffffffff811115611d8c57611d8b61159b565b5b611d9889828a01611a3d565b92505060a087013567ffffffffffffffff811115611db957611db861159b565b5b611dc589828a01611a3d565b9150509295509295509295565b611ddb816115fe565b82525050565b6000602082019050611df66000830184611dd2565b92915050565b600081519050919050565b600082825260208201905092915050565b6000819050602082019050919050565b600061010083016000830151611e4160008601826116f2565b5060208301518482036020860152611e598282611758565b91505060408301518482036040860152611e738282611758565b91505060608301518482036060860152611e8d8282611758565b9150506080830151611ea26080860182611791565b5060a0830151611eb560a0860182611791565b5060c0830151611ec860c0860182611791565b5060e083015184820360e0860152611ee082826117f1565b9150508091505092915050565b6000611ef98383611e28565b905092915050565b6000602082019050919050565b6000611f1982611dfc565b611f238185611e07565b935083602082028501611f3585611e18565b8060005b85811015611f715784840389528151611f528582611eed565b9450611f5d83611f01565b925060208a01995050600181019050611f39565b50829750879550505050505092915050565b60006020820190508181036000830152611f9d8184611f0e565b905092915050565b600082825260208201905092915050565b6000611fc1826117a0565b611fcb8185611fa5565b9350611fd6836117bc565b8060005b83811015612007578151611fee88826117cc565b9750611ff9836117e4565b925050600181019050611fda565b5085935050505092915050565b6000602082019050818103600083015261202e8184611fb6565b905092915050565b600060e08201905061204b600083018a611c2c565b818103602083015261205d8189611bf3565b905081810360408301526120718188611bf3565b905081810360608301526120858187611bf3565b90506120946080830186611afd565b6120a160a0830185611afd565b6120ae60c0830184611afd565b98975050505050505050565b7f4e487b7100000000000000000000000000000000000000000000000000000000600052603260045260246000fd5b7f4e487b7100000000000000000000000000000000000000000000000000000000600052601160045260246000fd5b60006121238261163c565b91507fffffffffffffffffffffffffffffffffffffffffffffffffffffffffffffffff8203612155576121546120e9565b5b600182019050919050565b7f4e487b7100000000000000000000000000000000000000000000000000000000600052602260045260246000fd5b600060028204905060018216806121a757607f821691505b6020821081036121ba576121b9612160565b5b50919050565b600081905092915050565b60008190508160005260206000209050919050565b600081546121ed8161218f565b6121f781866121c0565b9450600182166000811461221257600181146122275761225a565b60ff198316865281151582028601935061225a565b612230856121cb565b60005b8381101561225257815481890152600182019150602081019050612233565b838801955050505b50505092915050565b600061226f82846121e0565b915081905092915050565b600061228582611701565b61228f81856121c0565b935061229f81856020860161171d565b80840191505092915050565b60006122b7828461227a565b915081905092915050565b60006020601f8301049050919050565b600082821b905092915050565b60006008830261230f7fffffffffffffffffffffffffffffffffffffffffffffffffffffffffffffffff826122d2565b61231986836122d2565b95508019841693508086168417925050509392505050565b6000819050919050565b600061235661235161234c8461163c565b612331565b61163c565b9050919050565b6000819050919050565b6123708361233b565b61238461237c8261235d565b8484546122df565b825550505050565b600090565b61239961238c565b6123a4818484612367565b505050565b5b818110156123c8576123bd600082612391565b6001810190506123aa565b5050565b601f82111561240d576123de816121cb565b6123e7846122c2565b810160208510156123f6578190505b61240a612402856122c2565b8301826123a9565b50505b505050565b600082821c905092915050565b600061243060001984600802612412565b1980831691505092915050565b6000612449838361241f565b9150826002028217905092915050565b61246282611701565b67ffffffffffffffff81111561247b5761247a611940565b5b612485825461218f565b6124908282856123cc565b600060209050601f8311600181146124c357600084156124b1578287015190505b6124bb858261243d565b865550612523565b601f1984166124d1866121cb565b60005b828110156124f9578489015182556001820191506020850194506020810190506124d4565b868310156125165784890151612512601f89168261241f565b8355505b6001600288020188555050505b505050505050565b60006125368261163c565b91506125418361163c565b9250828201905080821115612559576125586120e9565b5b92915050565b7f4e487b7100000000000000000000000000000000000000000000000000000000600052601260045260246000fd5b60006125998261163c565b91506125a48361163c565b9250826125b4576125b361255f565b5b82820490509291505056fea26469706673582212202ce9d11b2d79cdc9513e51bd3b82ebad2656af91e6c3823ef7c1951d3e51be6a64736f6c63430008110033",
  "immutableReferences": {},
  "source": "// SPDX-License-Identifier: GPL-3.0\n\npragma solidity ^0.8.17;\n\nimport \"../node_modules/@openzeppelin/contracts/utils/math/SafeMath.sol\";\n\n// import \"../node_modules/@openzeppelin/contracts/access/Ownable.sol\";\n\ncontract Twitter {\n    using SafeMath for uint256;\n\n    uint256 public tid = 0;\n    address payable public Owner;\n\n    constructor() public {\n        Owner = payable(msg.sender);\n    }\n\n    struct User {\n        uint256 id;\n        uint256 correctDownvotes;\n        uint256 wrongDownvotes;\n        string name;\n        address ethad;\n        string username;\n        string email;\n        string password;\n    }\n\n    struct Tweet {\n        address ethadd;\n        string username;\n        string tweet;\n        string ipfsHash;\n        uint256 upVotes;\n        uint256 downVotes;\n        uint256 id;\n        address[] downVotedUsers;\n    }\n\n    Tweet[] public tweets;\n\n    User[] public users;\n\n    modifier onlyOwner() {\n        require(msg.sender == Owner, \"Not owner\");\n        _;\n    }\n\n    function addUser(\n        uint256 _id,\n        string memory _name,\n        address _ethad,\n        string memory _username,\n        string memory _email,\n        string memory _password\n    ) public {\n        users.push(\n            User(_id, 0, 0, _name, _ethad, _username, _email, _password)\n        );\n    }\n\n    function login(address _ethad, string memory _password)\n        public\n        view\n        returns (bool)\n    {\n        for (uint256 i = 0; i < users.length; i++) {\n            if (\n                users[i].ethad == _ethad &&\n                keccak256(abi.encodePacked(_password)) ==\n                keccak256(abi.encodePacked(users[i].password))\n            ) {\n                return true;\n            }\n        }\n        return false;\n    }\n\n    function addTweet(\n        address _ethad,\n        string memory _username,\n        string memory _tweet,\n        string memory _ipfsHash\n    ) public {\n        address[] memory addr;\n        tweets.push(\n            Tweet(_ethad, _username, _tweet, _ipfsHash, 0, 0, tid, addr)\n        );\n        tid = tid + 1;\n    }\n\n    function viewTweets() public view returns (Tweet[] memory) {\n        return tweets;\n    }\n\n    function downVote(\n        address _from,\n        address payable _to,\n        uint256 _tid\n    ) public {\n        // require(transfer(_to) == true, \"Rejected\");\n        tweets[_tid].downVotes++;\n        tweets[_tid].downVotedUsers.push(_from);\n    }\n\n    function downVotesUsers(uint256 _tid)\n        public\n        view\n        returns (address[] memory)\n    {\n        return tweets[_tid].downVotedUsers;\n    }\n\n    function particularTweet(uint256 _id) public view returns (Tweet memory) {\n        for (uint256 i = 0; i < tweets.length; i++) {\n            if (tweets[i].id == _id) {\n                return tweets[i];\n            }\n        }\n    }\n\n    function getDownvotes(uint256 _id) public view returns (uint256) {\n        for (uint256 i = 0; i < tweets.length; i++) {\n            if (tweets[i].id == _id) {\n                return tweets[i].downVotes;\n            }\n        }\n    }\n\n    function viewAllAccounts() public view returns (uint256) {\n        return users.length;\n    }\n\n    function checkFake(uint256 _id) public view returns (bool) {\n        uint256 totalUsers = users.length;\n        if (tweets[_id].downVotes >= (totalUsers / 3)) {\n            return true;\n        }\n        return false;\n    }\n}\n",
  "sourcePath": "/Users/aswinmm/Project/contracts/Twitter.sol",
  "compiler": {
    "name": "solc",
    "version": "0.8.17+commit.8df45f5f.Emscripten.clang"
  },
  "schemaVersion": "3.4.11",
  "updatedAt": "2023-04-11T04:35:36.174Z",
  "networkType": "ethereum",
  "devdoc": {
    "kind": "dev",
    "methods": {},
    "version": 1
  },
  "userdoc": {
    "kind": "user",
    "methods": {},
    "version": 1
  }
}